{
  "contractName": "MARTSIAEth",
  "abi": [
    {
      "inputs": [
        {
          "internalType": "uint64",
          "name": "_instanceID",
          "type": "uint64"
        },
        {
          "internalType": "bytes32",
          "name": "_hash1",
          "type": "bytes32"
        },
        {
          "internalType": "bytes32",
          "name": "_hash2",
          "type": "bytes32"
        }
      ],
      "name": "setAuthoritiesNames",
      "outputs": [],
      "stateMutability": "nonpayable",
      "type": "function"
    },
    {
      "inputs": [
        {
          "internalType": "address",
          "name": "_address",
          "type": "address"
        },
        {
          "internalType": "uint64",
          "name": "_instanceID",
          "type": "uint64"
        }
      ],
      "name": "getAuthoritiesNames",
      "outputs": [
        {
          "internalType": "bytes",
          "name": "",
          "type": "bytes"
        }
      ],
      "stateMutability": "view",
      "type": "function",
      "constant": true
    },
    {
      "inputs": [
        {
          "internalType": "uint64",
          "name": "_instanceID",
          "type": "uint64"
        },
        {
          "internalType": "bytes32",
          "name": "_hash1",
          "type": "bytes32"
        },
        {
          "internalType": "bytes32",
          "name": "_hash2",
          "type": "bytes32"
        },
        {
          "internalType": "bytes32",
          "name": "_hash3",
          "type": "bytes32"
        },
        {
          "internalType": "bytes32",
          "name": "_hash4",
          "type": "bytes32"
        }
      ],
      "name": "setElementHashed",
      "outputs": [],
      "stateMutability": "nonpayable",
      "type": "function"
    },
    {
      "inputs": [
        {
          "internalType": "address",
          "name": "_address",
          "type": "address"
        },
        {
          "internalType": "uint64",
          "name": "_instanceID",
          "type": "uint64"
        }
      ],
      "name": "getElementHashed",
      "outputs": [
        {
          "internalType": "bytes",
          "name": "",
          "type": "bytes"
        },
        {
          "internalType": "bytes",
          "name": "",
          "type": "bytes"
        }
      ],
      "stateMutability": "view",
      "type": "function",
      "constant": true
    },
    {
      "inputs": [
        {
          "internalType": "uint64",
          "name": "_instanceID",
          "type": "uint64"
        },
        {
          "internalType": "bytes32",
          "name": "_hash1",
          "type": "bytes32"
        },
        {
          "internalType": "bytes32",
          "name": "_hash2",
          "type": "bytes32"
        },
        {
          "internalType": "bytes32",
          "name": "_hash3",
          "type": "bytes32"
        },
        {
          "internalType": "bytes32",
          "name": "_hash4",
          "type": "bytes32"
        },
        {
          "internalType": "bytes32",
          "name": "_hash5",
          "type": "bytes32"
        },
        {
          "internalType": "bytes32",
          "name": "_hash6",
          "type": "bytes32"
        }
      ],
      "name": "setElement",
      "outputs": [],
      "stateMutability": "nonpayable",
      "type": "function"
    },
    {
      "inputs": [
        {
          "internalType": "address",
          "name": "_address",
          "type": "address"
        },
        {
          "internalType": "uint64",
          "name": "_instanceID",
          "type": "uint64"
        }
      ],
      "name": "getElement",
      "outputs": [
        {
          "internalType": "bytes",
          "name": "",
          "type": "bytes"
        },
        {
          "internalType": "bytes32",
          "name": "",
          "type": "bytes32"
        },
        {
          "internalType": "bytes",
          "name": "",
          "type": "bytes"
        },
        {
          "internalType": "bytes32",
          "name": "",
          "type": "bytes32"
        }
      ],
      "stateMutability": "view",
      "type": "function",
      "constant": true
    },
    {
      "inputs": [
        {
          "internalType": "uint64",
          "name": "_instanceID",
          "type": "uint64"
        },
        {
          "internalType": "bytes32",
          "name": "_hash1",
          "type": "bytes32"
        },
        {
          "internalType": "bytes32",
          "name": "_hash2",
          "type": "bytes32"
        }
      ],
      "name": "setPublicParameters",
      "outputs": [],
      "stateMutability": "nonpayable",
      "type": "function"
    },
    {
      "inputs": [
        {
          "internalType": "address",
          "name": "_address",
          "type": "address"
        },
        {
          "internalType": "uint64",
          "name": "_instanceID",
          "type": "uint64"
        }
      ],
      "name": "getPublicParameters",
      "outputs": [
        {
          "internalType": "bytes",
          "name": "",
          "type": "bytes"
        }
      ],
      "stateMutability": "view",
      "type": "function",
      "constant": true
    },
    {
      "inputs": [
        {
          "internalType": "uint64",
          "name": "_instanceID",
          "type": "uint64"
        },
        {
          "internalType": "bytes32",
          "name": "_hash1",
          "type": "bytes32"
        },
        {
          "internalType": "bytes32",
          "name": "_hash2",
          "type": "bytes32"
        }
      ],
      "name": "setPublicKey",
      "outputs": [],
      "stateMutability": "nonpayable",
      "type": "function"
    },
    {
      "inputs": [
        {
          "internalType": "address",
          "name": "_address",
          "type": "address"
        },
        {
          "internalType": "uint64",
          "name": "_instanceID",
          "type": "uint64"
        }
      ],
      "name": "getPublicKey",
      "outputs": [
        {
          "internalType": "bytes",
          "name": "",
          "type": "bytes"
        }
      ],
      "stateMutability": "view",
      "type": "function",
      "constant": true
    },
    {
      "inputs": [
        {
          "internalType": "bytes32",
          "name": "_hash1",
          "type": "bytes32"
        },
        {
          "internalType": "bytes32",
          "name": "_hash2",
          "type": "bytes32"
        }
      ],
      "name": "setPublicKeyReaders",
      "outputs": [],
      "stateMutability": "nonpayable",
      "type": "function"
    },
    {
      "inputs": [
        {
          "internalType": "address",
          "name": "_address",
          "type": "address"
        }
      ],
      "name": "getPublicKeyReaders",
      "outputs": [
        {
          "internalType": "bytes",
          "name": "",
          "type": "bytes"
        }
      ],
      "stateMutability": "view",
      "type": "function",
      "constant": true
    },
    {
      "inputs": [
        {
          "internalType": "uint64",
          "name": "_messageID",
          "type": "uint64"
        },
        {
          "internalType": "bytes32",
          "name": "_hash1",
          "type": "bytes32"
        },
        {
          "internalType": "bytes32",
          "name": "_hash2",
          "type": "bytes32"
        }
      ],
      "name": "setIPFSLink",
      "outputs": [],
      "stateMutability": "nonpayable",
      "type": "function"
    },
    {
      "inputs": [
        {
          "internalType": "uint64",
          "name": "_messageID",
          "type": "uint64"
        }
      ],
      "name": "getIPFSLink",
      "outputs": [
        {
          "internalType": "address",
          "name": "",
          "type": "address"
        },
        {
          "internalType": "bytes",
          "name": "",
          "type": "bytes"
        }
      ],
      "stateMutability": "view",
      "type": "function",
      "constant": true
    },
    {
      "inputs": [
        {
          "internalType": "uint64",
          "name": "_instanceID",
          "type": "uint64"
        },
        {
          "internalType": "bytes32",
          "name": "_hash1",
          "type": "bytes32"
        },
        {
          "internalType": "bytes32",
          "name": "_hash2",
          "type": "bytes32"
        }
      ],
      "name": "setUserAttributes",
      "outputs": [],
      "stateMutability": "nonpayable",
      "type": "function"
    },
    {
      "inputs": [
        {
          "internalType": "uint64",
          "name": "_instanceID",
          "type": "uint64"
        }
      ],
      "name": "getUserAttributes",
      "outputs": [
        {
          "internalType": "bytes",
          "name": "",
          "type": "bytes"
        }
      ],
      "stateMutability": "view",
      "type": "function",
      "constant": true
    }
  ],
  "bytecode": "0x608060405234801561001057600080fd5b50611dae806100206000396000f3fe608060405234801561001057600080fd5b50600436106101005760003560e01c80634b6869ed116100975780638d30055a116100665780638d30055a146102d2578063c40dc8ed14610302578063cf1fd0d11461031e578063ffff60f91461033a57610100565b80634b6869ed146102225780635d1635351461023e578063621f2e641461026f57806370012d0a1461029f57610100565b8063279d1727116100d3578063279d17271461018a5780633b8b760c146101a65780633f30c4cd146101d6578063497dc1e41461020657610100565b806305367d0a1461010557806305688eba146101365780630d18543d1461015257806312c080421461016e575b600080fd5b61011f600480360381019061011a91906118e1565b61036a565b60405161012d9291906119df565b60405180910390f35b610150600480360381019061014b9190611a45565b610488565b005b61016c60048036038101906101679190611a98565b6104eb565b005b61018860048036038101906101839190611a45565b61057d565b005b6101a4600480360381019061019f9190611a45565b610658565b005b6101c060048036038101906101bb9190611b04565b610724565b6040516101cd9190611b44565b60405180910390f35b6101f060048036038101906101eb9190611b04565b610868565b6040516101fd9190611b44565b60405180910390f35b610220600480360381019061021b9190611b66565b6109ac565b005b61023c60048036038101906102379190611a45565b610c3d565b005b61025860048036038101906102539190611b04565b610d1a565b604051610266929190611c08565b60405180910390f35b61028960048036038101906102849190611b04565b610f9c565b6040516102969190611b44565b60405180910390f35b6102b960048036038101906102b49190611b04565b6110de565b6040516102c99493929190611c4e565b60405180910390f35b6102ec60048036038101906102e79190611ca1565b611446565b6040516102f99190611b44565b60405180910390f35b61031c60048036038101906103179190611cce565b61153f565b005b61033860048036038101906103339190611a45565b6116f6565b005b610354600480360381019061034f91906118e1565b6117d3565b6040516103619190611b44565b60405180910390f35b600060606000600860008567ffffffffffffffff1667ffffffffffffffff16815260200190815260200160002060000160009054906101000a900473ffffffffffffffffffffffffffffffffffffffff1690506000600860008667ffffffffffffffff1667ffffffffffffffff1681526020019081526020016000206001015490506000600860008767ffffffffffffffff1667ffffffffffffffff1681526020019081526020016000206002015490506000604067ffffffffffffffff81111561043857610437611d49565b5b6040519080825280601f01601f19166020018201604052801561046a5781602001600182028036833780820191505090505b50905082602082015281604082015283819550955050505050915091565b81600960008567ffffffffffffffff1667ffffffffffffffff1681526020019081526020016000206000018190555080600960008567ffffffffffffffff1667ffffffffffffffff16815260200190815260200160002060010181905550505050565b81600760003373ffffffffffffffffffffffffffffffffffffffff1673ffffffffffffffffffffffffffffffffffffffff1681526020019081526020016000206000018190555080600760003373ffffffffffffffffffffffffffffffffffffffff1673ffffffffffffffffffffffffffffffffffffffff168152602001908152602001600020600101819055505050565b816000808567ffffffffffffffff1667ffffffffffffffff16815260200190815260200160002060003373ffffffffffffffffffffffffffffffffffffffff1673ffffffffffffffffffffffffffffffffffffffff16815260200190815260200160002060000181905550806000808567ffffffffffffffff1667ffffffffffffffff16815260200190815260200160002060003373ffffffffffffffffffffffffffffffffffffffff1673ffffffffffffffffffffffffffffffffffffffff16815260200190815260200160002060010181905550505050565b33600860008567ffffffffffffffff1667ffffffffffffffff16815260200190815260200160002060000160006101000a81548173ffffffffffffffffffffffffffffffffffffffff021916908373ffffffffffffffffffffffffffffffffffffffff16021790555081600860008567ffffffffffffffff1667ffffffffffffffff1681526020019081526020016000206001018190555080600860008567ffffffffffffffff1667ffffffffffffffff16815260200190815260200160002060020181905550505050565b60606000600660008467ffffffffffffffff1667ffffffffffffffff16815260200190815260200160002060008573ffffffffffffffffffffffffffffffffffffffff1673ffffffffffffffffffffffffffffffffffffffff1681526020019081526020016000206000015490506000600660008567ffffffffffffffff1667ffffffffffffffff16815260200190815260200160002060008673ffffffffffffffffffffffffffffffffffffffff1673ffffffffffffffffffffffffffffffffffffffff1681526020019081526020016000206001015490506000604067ffffffffffffffff81111561081b5761081a611d49565b5b6040519080825280601f01601f19166020018201604052801561084d5781602001600182028036833780820191505090505b50905082602082015281604082015280935050505092915050565b60606000600560008467ffffffffffffffff1667ffffffffffffffff16815260200190815260200160002060008573ffffffffffffffffffffffffffffffffffffffff1673ffffffffffffffffffffffffffffffffffffffff1681526020019081526020016000206000015490506000600560008567ffffffffffffffff1667ffffffffffffffff16815260200190815260200160002060008673ffffffffffffffffffffffffffffffffffffffff1673ffffffffffffffffffffffffffffffffffffffff1681526020019081526020016000206001015490506000604067ffffffffffffffff81111561095f5761095e611d49565b5b6040519080825280601f01601f1916602001820160405280156109915781602001600182028036833780820191505090505b50905082602082015281604082015280935050505092915050565b85600360008967ffffffffffffffff1667ffffffffffffffff16815260200190815260200160002060003373ffffffffffffffffffffffffffffffffffffffff1673ffffffffffffffffffffffffffffffffffffffff1681526020019081526020016000206000018190555084600360008967ffffffffffffffff1667ffffffffffffffff16815260200190815260200160002060003373ffffffffffffffffffffffffffffffffffffffff1673ffffffffffffffffffffffffffffffffffffffff1681526020019081526020016000206001018190555083600360008967ffffffffffffffff1667ffffffffffffffff16815260200190815260200160002060003373ffffffffffffffffffffffffffffffffffffffff1673ffffffffffffffffffffffffffffffffffffffff1681526020019081526020016000206002018190555082600460008967ffffffffffffffff1667ffffffffffffffff16815260200190815260200160002060003373ffffffffffffffffffffffffffffffffffffffff1673ffffffffffffffffffffffffffffffffffffffff1681526020019081526020016000206000018190555081600460008967ffffffffffffffff1667ffffffffffffffff16815260200190815260200160002060003373ffffffffffffffffffffffffffffffffffffffff1673ffffffffffffffffffffffffffffffffffffffff1681526020019081526020016000206001018190555080600460008967ffffffffffffffff1667ffffffffffffffff16815260200190815260200160002060003373ffffffffffffffffffffffffffffffffffffffff1673ffffffffffffffffffffffffffffffffffffffff1681526020019081526020016000206002018190555050505050505050565b81600660008567ffffffffffffffff1667ffffffffffffffff16815260200190815260200160002060003373ffffffffffffffffffffffffffffffffffffffff1673ffffffffffffffffffffffffffffffffffffffff1681526020019081526020016000206000018190555080600660008567ffffffffffffffff1667ffffffffffffffff16815260200190815260200160002060003373ffffffffffffffffffffffffffffffffffffffff1673ffffffffffffffffffffffffffffffffffffffff16815260200190815260200160002060010181905550505050565b6060806000600160008567ffffffffffffffff1667ffffffffffffffff16815260200190815260200160002060008673ffffffffffffffffffffffffffffffffffffffff1673ffffffffffffffffffffffffffffffffffffffff1681526020019081526020016000206000015490506000600160008667ffffffffffffffff1667ffffffffffffffff16815260200190815260200160002060008773ffffffffffffffffffffffffffffffffffffffff1673ffffffffffffffffffffffffffffffffffffffff1681526020019081526020016000206001015490506000600260008767ffffffffffffffff1667ffffffffffffffff16815260200190815260200160002060008873ffffffffffffffffffffffffffffffffffffffff1673ffffffffffffffffffffffffffffffffffffffff1681526020019081526020016000206000015490506000600260008867ffffffffffffffff1667ffffffffffffffff16815260200190815260200160002060008973ffffffffffffffffffffffffffffffffffffffff1673ffffffffffffffffffffffffffffffffffffffff1681526020019081526020016000206001015490506000604067ffffffffffffffff811115610eea57610ee9611d49565b5b6040519080825280601f01601f191660200182016040528015610f1c5781602001600182028036833780820191505090505b5090508460208201528360408201526000604067ffffffffffffffff811115610f4857610f47611d49565b5b6040519080825280601f01601f191660200182016040528015610f7a5781602001600182028036833780820191505090505b5090508360208201528260408201528181975097505050505050509250929050565b606060008060008467ffffffffffffffff1667ffffffffffffffff16815260200190815260200160002060008573ffffffffffffffffffffffffffffffffffffffff1673ffffffffffffffffffffffffffffffffffffffff16815260200190815260200160002060000154905060008060008567ffffffffffffffff1667ffffffffffffffff16815260200190815260200160002060008673ffffffffffffffffffffffffffffffffffffffff1673ffffffffffffffffffffffffffffffffffffffff1681526020019081526020016000206001015490506000604067ffffffffffffffff81111561109157611090611d49565b5b6040519080825280601f01601f1916602001820160405280156110c35781602001600182028036833780820191505090505b50905082602082015281604082015280935050505092915050565b606060006060600080600360008767ffffffffffffffff1667ffffffffffffffff16815260200190815260200160002060008873ffffffffffffffffffffffffffffffffffffffff1673ffffffffffffffffffffffffffffffffffffffff1681526020019081526020016000206000015490506000600360008867ffffffffffffffff1667ffffffffffffffff16815260200190815260200160002060008973ffffffffffffffffffffffffffffffffffffffff1673ffffffffffffffffffffffffffffffffffffffff1681526020019081526020016000206001015490506000600360008967ffffffffffffffff1667ffffffffffffffff16815260200190815260200160002060008a73ffffffffffffffffffffffffffffffffffffffff1673ffffffffffffffffffffffffffffffffffffffff1681526020019081526020016000206002015490506000600460008a67ffffffffffffffff1667ffffffffffffffff16815260200190815260200160002060008b73ffffffffffffffffffffffffffffffffffffffff1673ffffffffffffffffffffffffffffffffffffffff1681526020019081526020016000206000015490506000600460008b67ffffffffffffffff1667ffffffffffffffff16815260200190815260200160002060008c73ffffffffffffffffffffffffffffffffffffffff1673ffffffffffffffffffffffffffffffffffffffff1681526020019081526020016000206001015490506000600460008c67ffffffffffffffff1667ffffffffffffffff16815260200190815260200160002060008d73ffffffffffffffffffffffffffffffffffffffff1673ffffffffffffffffffffffffffffffffffffffff1681526020019081526020016000206002015490506000604067ffffffffffffffff81111561138a57611389611d49565b5b6040519080825280601f01601f1916602001820160405280156113bc5781602001600182028036833780820191505090505b5090508660208201528560408201526000604067ffffffffffffffff8111156113e8576113e7611d49565b5b6040519080825280601f01601f19166020018201604052801561141a5781602001600182028036833780820191505090505b509050846020820152836040820152818682859b509b509b509b50505050505050505092959194509250565b60606000600760008473ffffffffffffffffffffffffffffffffffffffff1673ffffffffffffffffffffffffffffffffffffffff1681526020019081526020016000206000015490506000600760008573ffffffffffffffffffffffffffffffffffffffff1673ffffffffffffffffffffffffffffffffffffffff1681526020019081526020016000206001015490506000604067ffffffffffffffff8111156114f3576114f2611d49565b5b6040519080825280601f01601f1916602001820160405280156115255781602001600182028036833780820191505090505b509050826020820152816040820152809350505050919050565b83600160008767ffffffffffffffff1667ffffffffffffffff16815260200190815260200160002060003373ffffffffffffffffffffffffffffffffffffffff1673ffffffffffffffffffffffffffffffffffffffff1681526020019081526020016000206000018190555082600160008767ffffffffffffffff1667ffffffffffffffff16815260200190815260200160002060003373ffffffffffffffffffffffffffffffffffffffff1673ffffffffffffffffffffffffffffffffffffffff1681526020019081526020016000206001018190555081600260008767ffffffffffffffff1667ffffffffffffffff16815260200190815260200160002060003373ffffffffffffffffffffffffffffffffffffffff1673ffffffffffffffffffffffffffffffffffffffff1681526020019081526020016000206000018190555080600260008767ffffffffffffffff1667ffffffffffffffff16815260200190815260200160002060003373ffffffffffffffffffffffffffffffffffffffff1673ffffffffffffffffffffffffffffffffffffffff168152602001908152602001600020600101819055505050505050565b81600560008567ffffffffffffffff1667ffffffffffffffff16815260200190815260200160002060003373ffffffffffffffffffffffffffffffffffffffff1673ffffffffffffffffffffffffffffffffffffffff1681526020019081526020016000206000018190555080600560008567ffffffffffffffff1667ffffffffffffffff16815260200190815260200160002060003373ffffffffffffffffffffffffffffffffffffffff1673ffffffffffffffffffffffffffffffffffffffff16815260200190815260200160002060010181905550505050565b60606000600960008467ffffffffffffffff1667ffffffffffffffff1681526020019081526020016000206000015490506000600960008567ffffffffffffffff1667ffffffffffffffff1681526020019081526020016000206001015490506000604067ffffffffffffffff8111156118505761184f611d49565b5b6040519080825280601f01601f1916602001820160405280156118825781602001600182028036833780820191505090505b509050826020820152816040820152809350505050919050565b600080fd5b600067ffffffffffffffff82169050919050565b6118be816118a1565b81146118c957600080fd5b50565b6000813590506118db816118b5565b92915050565b6000602082840312156118f7576118f661189c565b5b6000611905848285016118cc565b91505092915050565b600073ffffffffffffffffffffffffffffffffffffffff82169050919050565b60006119398261190e565b9050919050565b6119498161192e565b82525050565b600081519050919050565b600082825260208201905092915050565b60005b8381101561198957808201518184015260208101905061196e565b60008484015250505050565b6000601f19601f8301169050919050565b60006119b18261194f565b6119bb818561195a565b93506119cb81856020860161196b565b6119d481611995565b840191505092915050565b60006040820190506119f46000830185611940565b8181036020830152611a0681846119a6565b90509392505050565b6000819050919050565b611a2281611a0f565b8114611a2d57600080fd5b50565b600081359050611a3f81611a19565b92915050565b600080600060608486031215611a5e57611a5d61189c565b5b6000611a6c868287016118cc565b9350506020611a7d86828701611a30565b9250506040611a8e86828701611a30565b9150509250925092565b60008060408385031215611aaf57611aae61189c565b5b6000611abd85828601611a30565b9250506020611ace85828601611a30565b9150509250929050565b611ae18161192e565b8114611aec57600080fd5b50565b600081359050611afe81611ad8565b92915050565b60008060408385031215611b1b57611b1a61189c565b5b6000611b2985828601611aef565b9250506020611b3a858286016118cc565b9150509250929050565b60006020820190508181036000830152611b5e81846119a6565b905092915050565b600080600080600080600060e0888a031215611b8557611b8461189c565b5b6000611b938a828b016118cc565b9750506020611ba48a828b01611a30565b9650506040611bb58a828b01611a30565b9550506060611bc68a828b01611a30565b9450506080611bd78a828b01611a30565b93505060a0611be88a828b01611a30565b92505060c0611bf98a828b01611a30565b91505092959891949750929550565b60006040820190508181036000830152611c2281856119a6565b90508181036020830152611c3681846119a6565b90509392505050565b611c4881611a0f565b82525050565b60006080820190508181036000830152611c6881876119a6565b9050611c776020830186611c3f565b8181036040830152611c8981856119a6565b9050611c986060830184611c3f565b95945050505050565b600060208284031215611cb757611cb661189c565b5b6000611cc584828501611aef565b91505092915050565b600080600080600060a08688031215611cea57611ce961189c565b5b6000611cf8888289016118cc565b9550506020611d0988828901611a30565b9450506040611d1a88828901611a30565b9350506060611d2b88828901611a30565b9250506080611d3c88828901611a30565b9150509295509295909350565b7f4e487b7100000000000000000000000000000000000000000000000000000000600052604160045260246000fdfea264697066735822122087368f13850ec6de5bda768692573fc84f963b6d6e8d481587296a5d71ceb34864736f6c63430008110033",
  "immutableReferences": {},
  "source": "// SPDX-License-Identifier: CC-BY-SA-4.0\npragma solidity >= 0.5.0 < 0.9.0;\n\ncontract MARTSIAEth {\n\n  struct authoritiesNames {\n    bytes32 hashPart1;\n    bytes32 hashPart2;\n  }\n  mapping (uint64 => mapping (address => authoritiesNames)) authoritiesName;\n\n  struct firstElementHashed {\n    bytes32 hashPart1;\n    bytes32 hashPart2;\n  }\n  mapping (uint64 => mapping (address => firstElementHashed)) firstGHashed;\n\n  struct secondElementHashed {\n    bytes32 hashPart1;\n    bytes32 hashPart2;\n  }\n  mapping (uint64 => mapping (address => secondElementHashed)) secondGHashed;\n\n  struct firstElement {\n    bytes32 hashPart1;\n    bytes32 hashPart2;\n    bytes32 hashPart3;\n  }\n  mapping (uint64 => mapping (address => firstElement)) firstG;\n\n  struct secondElement {\n    bytes32 hashPart1;\n    bytes32 hashPart2;\n    bytes32 hashPart3;\n  }\n  mapping (uint64 => mapping (address => secondElement)) secondG;\n\n  struct publicParameters {\n    bytes32 hashPart1;\n    bytes32 hashPart2;\n  }\n  mapping (uint64 => mapping (address => publicParameters)) parameters;\n\n  struct publicKey {\n    bytes32 hashPart1;\n    bytes32 hashPart2;\n  }\n  mapping (uint64 => mapping (address =>  publicKey)) publicKeys;\n\n  struct publicKeyReaders {\n    bytes32 hashPart1;\n    bytes32 hashPart2;\n  }\n  mapping (address =>  publicKeyReaders) publicKeysReaders;\n\n  struct IPFSCiphertext {\n    address sender;\n    bytes32 hashPart1;\n    bytes32 hashPart2;\n  }\n  mapping (uint64 => IPFSCiphertext) allLinks;\n\n  struct userAttributes {\n    bytes32 hashPart1;\n    bytes32 hashPart2;\n  }\n  mapping (uint64 => userAttributes) allUsers;\n\n  function setAuthoritiesNames(uint64 _instanceID, bytes32 _hash1, bytes32 _hash2) public {\n    authoritiesName[_instanceID][msg.sender].hashPart1 = _hash1;\n    authoritiesName[_instanceID][msg.sender].hashPart2 = _hash2;\n  }\n\n  function getAuthoritiesNames(address _address, uint64 _instanceID) public view returns (bytes memory) {\n    bytes32 p1 = authoritiesName[_instanceID][_address].hashPart1;\n    bytes32 p2 = authoritiesName[_instanceID][_address].hashPart2;\n    bytes memory joined = new bytes(64);\n    assembly {\n      mstore(add(joined, 32), p1)\n      mstore(add(joined, 64), p2)\n    }\n    return joined;\n  }\n\n  function setElementHashed(uint64 _instanceID, bytes32 _hash1, bytes32 _hash2, bytes32 _hash3, bytes32 _hash4) public {\n    firstGHashed[_instanceID][msg.sender].hashPart1 = _hash1;\n    firstGHashed[_instanceID][msg.sender].hashPart2 = _hash2;\n    secondGHashed[_instanceID][msg.sender].hashPart1 = _hash3;\n    secondGHashed[_instanceID][msg.sender].hashPart2 = _hash4;\n  }\n\n  function getElementHashed(address _address, uint64 _instanceID) public view returns (bytes memory, bytes memory) {\n    bytes32 p1 = firstGHashed[_instanceID][_address].hashPart1;\n    bytes32 p2 = firstGHashed[_instanceID][_address].hashPart2;\n    bytes32 p3 = secondGHashed[_instanceID][_address].hashPart1;\n    bytes32 p4 = secondGHashed[_instanceID][_address].hashPart2;\n    bytes memory joined = new bytes(64);\n    assembly {\n      mstore(add(joined, 32), p1)\n      mstore(add(joined, 64), p2)\n    }\n    bytes memory joinedsec = new bytes(64);\n    assembly {\n      mstore(add(joinedsec, 32), p3)\n      mstore(add(joinedsec, 64), p4)\n    }\n    return (joined, joinedsec);\n  }\n\n  function setElement(uint64 _instanceID, bytes32 _hash1, bytes32 _hash2, bytes32 _hash3, bytes32 _hash4, bytes32 _hash5, bytes32 _hash6) public {\n    firstG[_instanceID][msg.sender].hashPart1 = _hash1;\n    firstG[_instanceID][msg.sender].hashPart2 = _hash2;\n    firstG[_instanceID][msg.sender].hashPart3 = _hash3;\n    secondG[_instanceID][msg.sender].hashPart1 = _hash4;\n    secondG[_instanceID][msg.sender].hashPart2 = _hash5;\n    secondG[_instanceID][msg.sender].hashPart3 = _hash6;\n  }\n\n  function getElement(address _address, uint64 _instanceID) public view returns (bytes memory, bytes32, bytes memory, bytes32) {\n    bytes32 p1 = firstG[_instanceID][_address].hashPart1;\n    bytes32 p2 = firstG[_instanceID][_address].hashPart2;\n    bytes32 p3 = firstG[_instanceID][_address].hashPart3;\n    bytes32 p4 = secondG[_instanceID][_address].hashPart1;\n    bytes32 p5 = secondG[_instanceID][_address].hashPart2;\n    bytes32 p6 = secondG[_instanceID][_address].hashPart3;\n    bytes memory joined = new bytes(64);\n    assembly {\n      mstore(add(joined, 32), p1)\n      mstore(add(joined, 64), p2)\n    }\n    bytes memory joinedsec = new bytes(64);\n    assembly {\n      mstore(add(joinedsec, 32), p4)\n      mstore(add(joinedsec, 64), p5)\n    }\n\n    return (joined, p3, joinedsec, p6);\n  }\n\n  function setPublicParameters(uint64 _instanceID, bytes32 _hash1, bytes32 _hash2) public {\n    parameters[_instanceID][msg.sender].hashPart1 = _hash1;\n    parameters[_instanceID][msg.sender].hashPart2 = _hash2;\n  }\n\n  function getPublicParameters(address _address, uint64 _instanceID) public view returns (bytes memory) {\n    bytes32 p1 = parameters[_instanceID][_address].hashPart1;\n    bytes32 p2 = parameters[_instanceID][_address].hashPart2;\n    bytes memory joined = new bytes(64);\n    assembly {\n      mstore(add(joined, 32), p1)\n      mstore(add(joined, 64), p2)\n    }\n    return joined;\n  }\n\n  function setPublicKey(uint64 _instanceID, bytes32 _hash1, bytes32 _hash2) public {\n    publicKeys[_instanceID][msg.sender].hashPart1 = _hash1;\n    publicKeys[_instanceID][msg.sender].hashPart2 = _hash2;\n  }\n\n  function getPublicKey(address _address, uint64 _instanceID) public view returns (bytes memory) {\n    bytes32 p2 = publicKeys[_instanceID][_address].hashPart1;\n    bytes32 p3 = publicKeys[_instanceID][_address].hashPart2;\n    bytes memory joined = new bytes(64);\n    assembly {\n      mstore(add(joined, 32), p2)\n      mstore(add(joined, 64), p3)\n    }\n      return (joined);\n  }\n\n  function setPublicKeyReaders(bytes32 _hash1, bytes32 _hash2) public {\n    publicKeysReaders[msg.sender].hashPart1 = _hash1;\n    publicKeysReaders[msg.sender].hashPart2 = _hash2;\n  }\n\n  function getPublicKeyReaders(address _address) public view returns (bytes memory) {\n    bytes32 p2 = publicKeysReaders[_address].hashPart1;\n    bytes32 p3 = publicKeysReaders[_address].hashPart2;\n    bytes memory joined = new bytes(64);\n    assembly {\n      mstore(add(joined, 32), p2)\n      mstore(add(joined, 64), p3)\n    }\n      return (joined);\n  }\n\n  function setIPFSLink(uint64 _messageID, bytes32 _hash1, bytes32 _hash2) public {\n    allLinks[_messageID].sender = msg.sender;\n    allLinks[_messageID].hashPart1 = _hash1;\n    allLinks[_messageID].hashPart2 = _hash2;\n  }\n\n  function getIPFSLink(uint64 _messageID) public view returns (address, bytes memory) {\n    address sender = allLinks[_messageID].sender;\n    bytes32 p1 = allLinks[_messageID].hashPart1;\n    bytes32 p2 = allLinks[_messageID].hashPart2;\n    bytes memory joined = new bytes(64);\n    assembly {\n      mstore(add(joined, 32), p1)\n      mstore(add(joined, 64), p2)\n    }\n    return (sender, joined);\n  }\n\n  function setUserAttributes(uint64 _instanceID, bytes32 _hash1, bytes32 _hash2) public {\n    allUsers[_instanceID].hashPart1 = _hash1;\n    allUsers[_instanceID].hashPart2 = _hash2;\n  }\n\n  function getUserAttributes(uint64 _instanceID) public view returns (bytes memory) {\n    bytes32 p1 = allUsers[_instanceID].hashPart1;\n    bytes32 p2 = allUsers[_instanceID].hashPart2;\n    bytes memory joined = new bytes(64);\n    assembly {\n      mstore(add(joined, 32), p1)\n      mstore(add(joined, 64), p2)\n    }\n    return joined;\n  }\n\n}\n\n",
  "sourcePath": "/MARTSIA-Demo-KoB/blockchain/contracts/MARTSIAEth.sol",
  "compiler": {
    "name": "solc",
    "version": "0.8.17+commit.8df45f5f.Emscripten.clang"
  },
  "schemaVersion": "3.4.11",
  "updatedAt": "2024-08-13T14:41:22.807Z",
  "networkType": "ethereum",
  "devdoc": {
    "kind": "dev",
    "methods": {},
    "version": 1
  },
  "userdoc": {
    "kind": "user",
    "methods": {},
    "version": 1
  }
}